:020000040000FA
:100000003E28A301A200FF30A207031CA307031C84
:1000100039280330A100DF300F200328A101E83E7A
:10002000A000A109FC30031C1828A00703181528FC
:10003000A0076400A10F152820181E28A01C222844
:100040000000222808001030A800A101A001A70C80
:10005000A60C031C31282208A00723080318230F2D
:10006000A107A10CA00CA50CA40CA80B2728240800
:1000700039288313031383126400080083161F308A
:100080008500860183120130B800B9010630BA003C
:100090000530BB000130C100C00105184214051C29
:1000A000421064004108013C8A11031D59283B0895
:1000B000C30064004108023C8A11031D61283A080C
:1000C000C30064004108043C8A11031D69283908F3
:1000D000C30064004108083C8A11031D71283808D8
:1000E000C3004308A600A7010830A200A3018A01AB
:1000F0002320BC002508BD004008A600A70102304F
:10010000A200A3018A012320BE002508BF003C08ED
:100110003E0786000230A600A7014108A200A30105
:100120008A012320C10064004108103C8A11031D8C
:100130009B280130C100C00A64004008043C8A11B9
:10014000031DA328C0014218C215421CC211013070
:080150008A0101208A014D28FB
:02400E006D3F04
:00000001FF
