:020000040000FA
:100000003E288F018E00FF308E07031C8F07031CD4
:10001000392803308D00DF300F2003288D01E83EA2
:100020008C008D09FC30031C18288C070318152838
:100030008C0764008D0F15280C181E288C1C222894
:10004000000022280800103094008D018C01930CD0
:10005000920C031C31280E088C070F0803180F0F91
:100060008D078D0C8C0C910C900C940B272810088C
:1000700039288313031383126400080083161F308A
:100080008500860183120130AF00AE010230A4006A
:10009000A5010530A6000230A7000930A8000730EE
:1000A000A9000830AA000130AB0005183014051C67
:1000B000301064002F08013C031D60282B08B1009C
:1000C00064002F08023C031D67282A08B100640061
:1000D0002F08043C031D6E282908B10064002F0876
:1000E000083C031D75282808B10064002F08103C47
:1000F000031D7C282708B10064002F08203C031D45
:1001000083282608B10064002F08403C031D8A287C
:100110002508B10064002F08803C031D91282408A5
:10012000B10031089200930110308E008F0123201E
:10013000AC001108AD002E08AC070318AD0A08305A
:100140002C0786000230920093012F088E008F0149
:100150002320AF0064002F08003C031DB1280130AC
:10016000AF00AE0A64002E08083C031DB828AE019B
:06017000013001205528BA
:02400E00FD3F74
:00000001FF
