:020000040000FA
:100000007428A301A200FF30A207031CA307031C4E
:100010006F280330A100DF300F200328A101E83E44
:10002000A000A109FC30031C1828A00703181528FC
:10003000A0076400A10F152820181E28A01C222844
:10004000000022280800A20003302628A800230868
:100050002102031D2D28220820020430031801303C
:10006000031902302805031DFF306F280038031DD7
:10007000FF300405031DFF306F28A501A4011030D7
:10008000A600210DA40DA50D2208A4022308031C1F
:10009000230FA502031853282208A40723080318D6
:1000A000230FA5070310A00DA10DA60B41282008C2
:1000B0006F281030A800A101A001A70CA60C031CFA
:1000C00067282208A00723080318230FA107A10C03
:1000D000A00CA50CA40CA80B5D2824086F28831382
:1000E000031383126400080083161F308500860105
:1000F00083122930BC000430BD000130C700C601A6
:10010000CA0105184814051C48100301C81DFF301A
:10011000C00003014818FF30C200400884004208B4
:100120008A013620C200C3006400420843048A11D9
:100130000319BD283C08A0003D08A100A301EB3035
:100140008A0123208A11031DB7283C08EB3CBE001E
:100150003D08031C013E003CBF003E080F3CBC00B4
:100160003F08031C013E273CBD008A11BD28EB302F
:10017000BC020030031C013EBD028A111A2164003A
:100180004708013C8A11031DC7283808C9006400CC
:100190004708023C8A11031DCF283908C9006400B2
:1001A0004708043C8A11031DD7283A08C900640097
:1001B0004708083C8A11031DDF283B08C90049088D
:1001C000A600A7010830A200A3018A015920C0009F
:1001D0002508C1004608A600A7010230A200A3011D
:1001E0008A015920C2002508C30040084207860042
:1001F0000230A600A7014708A200A3018A015920E6
:10020000C70064004708103C8A11031D092901300A
:10021000C700C60A64004608043C8A11031D112960
:10022000C6014818C815481CC81101308A010120B0
:100230008A0181283C08C4003D08C500CA01640049
:1002400004304A028A11031847294408A0004508CF
:10025000A1000A30A200A3018A013D202408C000A9
:100260002508C1004A08383E840040088000440840
:10027000A0004508A1000A30A200A3018A013D2088
:10028000C4002108C500CA0A8A11031D1F290800DD
:02400E006D3F04
:00000001FF
