:020000040000FA
:100000003E288F018E00FF308E07031C8F07031CD4
:10001000392803308D00DF300F2003288D01E83EA2
:100020008C008D09FC30031C18288C070318152838
:100030008C0764008D0F15280C181E288C1C222894
:10004000000022280800103094008D018C01930CD0
:10005000920C031C31280E088C070F0803180F0F91
:100060008D078D0C8C0C910C900C940B272810088C
:1000700039288313031383126400080083161F308A
:100080008500860183120130AF00AE01B20102305B
:10009000A400A5010530A6000230A7000930A80081
:1000A0000730A9000830AA000130AB000518301451
:1000B000051C301064003208803C031D6728B20123
:1000C0000301B01D013E0319B011031DB0156400FA
:1000D0002F08013C031D6E282B08B10064002F0877
:1000E000023C031D75282A08B10064002F08043C57
:1000F000031D7C282908B10064002F08083C031D5B
:1001000083282808B10064002F08103C031D8A28AA
:100110002708B10064002F08203C031D9128260801
:10012000B10064002F08403C031D98282508B10049
:1001300064002F08803C031D9F282408B10031086B
:100140009200930110308E008F012320AC00110823
:10015000AD002E08AC070318AD0A08302C07860046
:10016000B0198615B01D8611B20A023092009301B3
:100170002F088E008F012320AF0064002F08003C61
:10018000031DC4280130AF00AE0A64002E08083CED
:0C019000031DCB28AE01013001205628D1
:02400E00FD3F74
:00000001FF
