:020000040000FA
:1000000045288F018E00FF308E07031C8F07031CCD
:10001000402803308D00DF300F2003288D01E83E9B
:100020008C008D09FC30031C18288C070318152838
:100030008C0764008D0F15280C181E288C1C222894
:100040000000222808000038031DFF300405031DAE
:10005000FF304028103094008D018C01930C920CDD
:10006000031C38280E088C070F0803180F0F8D0784
:100070008D0C8C0C910C900C940B2E2810084028A1
:100080008313031383126400080083161F30850056
:10009000860183120130AE00B001AD01B201AC01A6
:1000A000AF112F12AF132F13AF1285192F15851D06
:1000B0002F110519AF14051DAF1085182F14851CBD
:1000C0002F100301AF1FFF30A80003012F19FF30CD
:1000D000AA00280884002A082320AA00AB00640094
:1000E0002A082B0403197C280301AF1D013E0319C4
:1000F000AF11031DAF15AD010F30A4000F30A500E7
:100100000F30A6000F30A7006400AF1DBC28AD0A59
:1001100003012F1FFF30A8000301AF18FF30AA0012
:10012000280884002A082320AA00AB0064002A08BB
:100130002B040319A228AC0A64000A302C02031C09
:10014000A228AC010301AF1EFF30A80003012F1845
:10015000FF30AA00280884002A082320AA00AB0048
:1001600064002A082B040319BC28B00A6400043078
:100170003002031CBC28B001640081302D02031C36
:10018000C4280F30B100C9283008243E84002C0850
:10019000800064002E08013C031DD0282408B10013
:1001A00064002E08023C031DD7282508B100640016
:1001B0002E08043C031DDE282608B10064002E082A
:1001C000083C031DE5282708B1003108920093017F
:1001D00008308E008F012A20A8001108A9003208DB
:1001E0009200930102308E008F012A20AA0011088C
:1001F000AB0028082A0786000230920093012E08DF
:100200008E008F012A20AE0064002E08103C031DD2
:100210000B290130AE00B20A64003208043C031D11
:100220001229B2012F19AF172F1DAF13AF182F17B7
:10023000AF1C2F132F18AF162F1CAF120130012047
:0202400055283F
:02400E00FD3F74
:00000001FF
